UHL1009013120516SUB                                       
01  H11770000000650001450020123456789010131778412051672601
01  H11780000000750001450021234567890131131778412051672601
01  H11790000000850001450022345678901242131778412051672601
01  H11800000000950001450023456789012313131778412051672601
01  H11810000001050001450024567890123424131778412051672601
UTL100000000425000000005                                  
